:020000040800F2
:1000000008050020591900089115000893150008EB
:1000100095150008971500089915000800000000C4
:100020000000000000000000000000009D15000816
:100030009B150008000000009F150008A11500088E
:1000400075190008791900087D1900088119000840
:1000500085190008891900088D19000891190008F0
:1000600095190008991900089D190008A1190008A0
:10007000A5190008A9190008AD190008B119000850
:10008000B5190008B9190008BD190008C119000800
:10009000C5190008C9190008CD190008D1190008B0
:1000A000D5190008AD150008D9190008DD19000898
:1000B000DF150008E1190008E5190008E919000832
:1000C000ED190008F1190008F5190008F9190008E0
:1000D000FD190008FB150008011A0008051A0008A0
:1000E000091A00080D1A0008111A000840B2002869
:1000F00008D5090140B210F00F00D84A801800F866
:10010000041C03E0090140B2D54A8154704780B510
:10011000411EB1F1807F01D301200EE0401ED14984
:1001200008600F215FF0FF30FFF7E0FF0020CE49AD
:1001300008600720CD490860002002BD80B500F0AE
:1001400013F800F0C9F900F054F900F078F841F61E
:100150001F40FFF7DCFF00F022F800F0E0F800F0AD
:100160009BF900F0AAF901BD80B500F0FFF901206C
:1001700000F0BFFA4FF4A06000F0A6FA002000F0F3
:10018000ADFA0121012000F018FB0121B84800F070
:1001900034FB012144F6FD3000F01FFB01BD00B52A
:1001A00085B001224FF40071B24800F0B8FB4FF463
:1001B0000070ADF8000018208DF8030003208DF8C2
:1001C000020000A9AB4800F03BFB4FF48060ADF8A3
:1001D000000048208DF8030003208DF8020000A9DC
:1001E000A44800F02DFB4FF4165001900020ADF80C
:1001F00008000020ADF80A000020ADF80C00002037
:10020000ADF810000C20ADF80E0001A99A4800F0DE
:10021000A3FB0121984800F001FC40F226619648BA
:1002200000F076FC40F22551934800F071FC012269
:1002300040F22551904800F0FFFB05B000BD00B52D
:100240008DB04FF48070ADF8000018208DF80300D9
:1002500003208DF8020000A9864800F0F1FA40F270
:10026000CF20ADF828000020ADF824000020ADF824
:100270002A000020ADF8260000208DF82C0009A9E6
:100280007E4800F057FC6020ADF804000120ADF876
:1002900006000420ADF808004FF4B470ADF80A0071
:1002A0000020ADF80C000020ADF80E004FF4807077
:1002B000ADF810000020ADF8120001A96F4800F061
:1002C00083FC4FF40060ADF814004FF48060ADF88B
:1002D00016000020ADF818000020ADF81A0000202C
:1002E000ADF81C000020ADF81E004FF48040ADF8C2
:1002F000200005A9614800F0B4FC08215F4800F027
:10030000EDFC01215D4800F0DBFC01215B4800F0C1
:10031000B8FC0121594800F0C2FC0DB000BD00B589
:1003200091B00320ADF8000000208DF8030000A973
:10033000504800F085FA524800F008FD51480690F8
:1003400051480790002008900220099000200A9050
:1003500080200B904FF480700C904FF480600D90D3
:1003600020200E904FF400500F900020109006A90E
:10037000434800F070FD0121414800F08BFD002052
:10038000019001208DF8080000208DF809005FF42D
:10039000602003900020049002208DF8140001A931
:1003A0003A4800F0A1FD072301220021374800F060
:1003B000F9FD072302220121344800F0F3FD012159
:1003C000324800F0C4FD0121304800F0B3FD2F4851
:1003D00000F0CAFD2D4800F0CCFD0028FAD12B48D2
:1003E00000F0D1FD294800F0D3FD0028FAD111B06A
:1003F00000BD80B500211F4800F09AFA4FF6FF704B
:10040000ADF8000010208DF8030003208DF80200E5
:1004100000211F4800F08CFA4FF6FF70ADF8000085
:1004200010208DF8030003208DF8020000A9184861
:1004300000F006FA0021174800F07AFA4FF6FF7034
:10044000ADF8000010208DF8030003208DF80200A5
:1004500000A9104800F0F4F901BD000018ED00E01B
:1004600000E400E014E000E018E000E010E000E04C
:10047000030804000008014000380140002C01403E
:10048000080002404C2401401400002000240140D8
:10049000000C01400010014080B545F2555000F0BD
:1004A000E7FD032000F0E8FD1F2000F0E9FD00203B
:1004B00000F0DEFD00F0EDFD01BD80B54FF4807071
:1004C00000F0F2FD502000F0F9FD542000F009FE8C
:1004D000542000F00CFE01BD80B54FF4407000F0D8
:1004E00011FE19208DF8000000208DF80100002079
:1004F0008DF8020001208DF8030000A800F007FE2F
:100500001C208DF8000000208DF8010000208DF8DF
:10051000020001208DF8030000A800F0F8FD25205E
:100520008DF800000E208DF8010000208DF80200EB
:1005300001208DF8030000A800F0E9FD01BD10B412
:1005400050F8041B81B102681218001D50F8043BDA
:10055000DC0744BFA9F10104E31852F8044B43F847
:10056000044B091FF9D1EBE710BC704780B54F4829
:10057000006850F001004D4908604D4800684D4941
:1005800008404B490860494800684B4908404749C2
:1005900008604648006830F48020444908604448B8
:1005A000006830F4FE00424908605FF41F004349D0
:1005B000086000F005F85FF000604149086001BD87
:1005C00080B500F001F801BD82B00020019000204C
:1005D00000903648006850F4803034490860334851
:1005E000006810F4003000900198401C01900098C1
:1005F000002803D10198B0F5A06FF0D12B48006816
:10060000800302D50120009001E0002000900098B6
:10061000012847D12B48006850F010002949086094
:10062000284800688008800026490860254800683E
:1006300050F00200234908601D4800681C4908600A
:100640001B4800681A4908601948006850F4806027
:10065000174908601648006830F47C101449086097
:100660001348006850F4E810114908600F4800680A
:1006700050F080700D4908600C4800688001FBD57F
:100680000B48006880088000094908600848006835
:1006900050F00200064908600548006810F00C00A0
:1006A0000828F9D102B07047000000000010024095
:1006B000041002400000FFF8FFFFF6FE08100240A1
:1006C00008ED00E0002002400021544A12681100A9
:1006D00031F4E061014351480160704700214F4A05
:1006E0001268110031F4605151EAC0014B480160B9
:1006F0007047C0B24A490860704730B400220021F8
:1007000000230024454D2D6815F00C052A00002A11
:1007100004D0042A05D0082A06D021E0414901600E
:1007200020E0404901601DE03C49096811F4701166
:100730003A4A126812F48033890C891C002B03D1C9
:10074000394A514301600AE0344A1268920303D5E2
:10075000354A5143016002E0324A5143016001E0F1
:10076000304901602D49096811F0F00212092F4942
:10077000545C0168E14041602849096811F4E06275
:10078000120A2A49545C4168E140816023490968A2
:1007900011F46052D20A2549545C4168E140C160BD
:1007A0001E49096811F44042920B2149545CC1680A
:1007B000B1FBF4F1016130BC7047C9B2002905D02A
:1007C0001C49096808431B49086005E01949096884
:1007D00031EA0000174908607047C9B2002905D006
:1007E0001549096808431449086005E01249096879
:1007F00031EA0000104908607047C9B2002905D0ED
:100800000E49096808430D49086005E00B4909686D
:1008100031EA0000094908607047000004100240F6
:100820008004424200127A0000093D0000000020CE
:100830001000002014100240181002401C1002404A
:10084000F0B400220026002400250023002791F8A0
:1008500003C01CF00F0C624691F803C05FEACC6C39
:1008600001D58B781A430B781B0621D0036800242E
:1008700006E0CD78482D02D10125A5400561641C14
:10088000082C14D20125A5400E882E40AE42F6D188
:10089000A5000F2616FA05F7BB4312FA05F52B4300
:1008A000CD78282DE5D10125A5404561E7E7036016
:1008B0000B88FF2B26DD4368002420E0012514F17E
:1008C0000806B5400E882E40AE4217D1A5000F266F
:1008D00016FA05F7BB4312FA05F52B43CD78282D00
:1008E00004D1012514F10806B5404561CD78482DA5
:1008F00004D1012514F10806B5400561641C082CDB
:10090000DCD34360F0BC70470022C06889B2084263
:1009100001D0012200E000221000C0B27047D2B224
:10092000002A02D089B2016101E089B241617047B9
:1009300089B2C160704750F8041B61B150F8042BB4
:10094000D30744BFA9F101039A18002342F8043BDE
:10095000091FFAD1EFE77047F0B585B004000D002C
:1009600000200021002200230026AF89002F26004E
:10097000208A4CF6FF710840E98808432082A0894C
:100980004EF6F3110840A9882A8911436A89114358
:100990000843A081A08A4FF6FF410840A989084377
:1009A000A08200A8FFF7A9FE1B48864201D1039947
:1009B00000E00299A089000407D5192000FB01F08E
:1009C00029684900B0FBF1F206E0192000FB01F0B4
:1009D00029688900B0FBF1F26420B2FBF0F000015D
:1009E0000109642303FB1123A189090408D5D90057
:1009F00032316422B1FBF2F111F00701084307E044
:100A0000190132316422B1FBF2F111F00F010843F8
:100A1000208105B0F0BD000000380140C9B20029B6
:100A200004D0818951F40051818104E081894DF61F
:100A3000FF72114081817047F0B40023002400252B
:100A4000002689B240F66A17B94206000800C0B213
:100A50004309DBB289B211F01F04012010FA04F53A
:100A6000012B01D10C3604E0022B01D1103600E03D
:100A70001436D2B2002A03D030682843306002E036
:100A80003068A8433060F0BC70478088C005C00D56
:100A90007047002289B2B1F5007F0088084201D07A
:100AA000012200E000221000C0B2704770B40023A1
:100AB00000240025002289B240F66A16B1420A00DD
:100AC000D2B25509EDB289B211F01F04012212FA17
:100AD00004F4012D02D18289144006E0022D02D1D6
:100AE000028A144001E0828A144089B20B0A9BB248
:100AF000012111FA03F300880340002C03D0002BDE
:100B000001D0012200E000221000C0B270BC70478A
:100B100010B40022002389B240F66A14A14289B2BF
:100B20000A0A012111FA02F39BB2D943018010BCD9
:100B300070470000002203881A00DFF8E83198426D
:100B400012D0DFF8F83198420ED0B0F1804F0BD0C0
:100B5000DFF8D431984207D0DFF8D031984203D083
:100B6000DFF8CC31984204D14FF68F731A404B888E
:100B70001A43DFF8C031984208D0DFF8BC31984200
:100B800004D04FF6FF431A40CB881A4302808A886C
:100B900082850A880285DFF88C2190420FD0DFF829
:100BA0009C2190420BD0DFF89821904207D0DFF8CB
:100BB0009421904203D0DFF89021904201D1097A2C
:100BC000018601218182704770B400230024002235
:100BD000058C4FF6FE7635400584058C2C00858803
:100BE0002A00058B2B004FF68F752B404FF6FC75B6
:100BF0002B400D882B434FF6FD752C400D892C435F
:100C00004D882C43DFF81C51A8420FD0DFF82C513F
:100C1000A8420BD0DFF82851A84207D0DFF82451B2
:100C2000A84203D0DFF82051A84213D14FF6F77540
:100C30002C404D892C434FF6FB752C408D882C435E
:100C40004FF6FF652A404FF6FF552A408D892A430B
:100C5000CD892A4382800383C9888186048470BC3D
:100C600070470A884B881A438B881A43CB881A43EB
:100C70000B891A434B891A4389891143A0F8441000
:100C80007047C9B2002904D0018851F001010180E8
:100C900004E001884FF6FE72114001807047C9B22E
:100CA000002906D0B0F8441051F40041A0F84410D7
:100CB00005E0B0F844104904490CA0F8441070470E
:100CC000C9B2002904D0018851F08001018004E0FC
:100CD00001884FF67F721140018070470022038B1C
:100CE0001A004FF6F7731A400A430283704730B474
:100CF000002200230024058A0D402B008089084033
:100D000004009BB2002B04D0A4B2002C01D001221D
:100D100000E000221000C0B230BC704789B2C94365
:100D200001827047002C0140000400400008004090
:100D3000000C00400010004000140040003401404E
:100D400000400140004401400048014001684FF666
:100D5000FE7211400160002101600021416000210C
:100D600081600021C1605249884206D15148006823
:100D700050F00F004F4908606CE04F49884206D19F
:100D80004C48006850F0F0004A49086062E04B4966
:100D9000884206D14748006850F4706045490860B1
:100DA00058E04749884206D14248006850F47040F4
:100DB000404908604EE04349884206D13D480068FA
:100DC00050F470203B49086044E03F49884206D116
:100DD0003848006850F47000364908603AE03B49F2
:100DE000884206D13348006850F07060314908608D
:100DF00030E03749884206D13648006850F00F008D
:100E00003449086026E03449884206D131480068F8
:100E100050F0F0002F4908601CE03049884206D1AC
:100E20002C48006850F470602A49086012E02C4990
:100E3000884206D12748006850F470402549086070
:100E400008E02849884205D12248006850F4702003
:100E500020490860704710B4002203681A006FF33D
:100E60000E128B680C6A23430C6923434C6923439D
:100E70008C692343CC6923434C6A23438C6A234304
:100E80001A430260CA6842600A6882604968C160A9
:100E900010BC7047C9B2002904D0016851F00101AB
:100EA000016004E001684FF6FE7211400160704776
:100EB00008000240040002401C00024030000240D2
:100EC00044000240580002406C0002408000024092
:100ED00008040240040402401C04024030040240A2
:100EE000440402405804024030B400230022446805
:100EF0002300DFF8744123400C680D7954EA05247F
:100F0000234343608368DFF864412340CC688D68E5
:100F10002C434D7954EA450423438360C36A33F478
:100F20007003097C491E0A43D2B253EA0253C362DA
:100F300030BC7047C9B2002904D0816851F001016A
:100F4000816003E081684908490081607047C9B247
:100F5000002904D0816851F48071816003E08168C8
:100F600031F4807181607047816851F008018160BF
:100F7000704700218068000701D5012100E00021B1
:100F80000800C0B27047816851F004018160704769
:100F900000218068400701D5012100E00021080000
:100FA000C0B27047F0B400240025C9B20A2911DB91
:100FB000C4680725B1F10A0603277E43B540AC4358
:100FC000DBB2B1F10A050326754313FA05F52C438C
:100FD000C4600EE004690725032606FB01F6B54050
:100FE000AC43DBB2032505FB01F513FA05F52C43F1
:100FF0000461D2B2072A10DA446B1F23551E05265E
:10100000754313FA05F5AC43C9B2521E05235A4382
:1010100011FA02F52C43446324E0D2B20D2A10DA0F
:10102000046B1F23D51F0526754313FA05F5AC4342
:10103000C9B2D21F05235A4311FA02F52C430463A7
:1010400010E0C46A1F23B2F10D050526754313FA9B
:1010500005F5AC43C9B20D3A05235A4311FA02F51E
:101060002C43C462F0BC7047FFFEF0FFFDF7F1FFB8
:1010700080B20A4908607047C0B2094908607047E9
:1010800080B20849086070474AF6AA200349086000
:1010900070474CF6CC400149086070470030004072
:1010A00004300040083000400021144A126832F435
:1010B000C0721100014311480160704781B00021E6
:1010C00000910E490968C909C90100910099C0B28F
:1010D00010F07F000843009000980849086001B0B4
:1010E0007047C0B210F07F00054908607047C0B279
:1010F00050F080000249086070470000042C004056
:10110000002C00401A4908431A490860704710B47F
:10111000002100220F23C478002C1DD01549096836
:1011200011F4E061D1F5E061090AD1F10402CB408C
:101130004178914082781A401143090102780E4BA0
:10114000D1540121027812F01F0291400078401121
:101150000A4A42F8201009E00121027812F01F0229
:10116000914000784011064A42F8201010BC7047A8
:101170000000FA050CED00E000E400E000E100E012
:1011800080E100E080B572480078002806D01A2877
:1011900011D031283CD035283AD060E01A206C4973
:1011A00008704FF6FF706B490968C88000206949D4
:1011B0000968086056E06848006868490860664841
:1011C00000796749087066480078152802DB14200A
:1011D0006349087000206349087010E05F480068A8
:1011E000007860490978604A88545C480068401C6F
:1011F0005A4908605B480078401C5A4908705948B1
:101200000078574909788842E8D30020554908708A
:1012100054480078524909788842BFD28021534807
:10122000FFF737FC012812D14E4800784E49405C48
:101230004F4908804B480078401C4A4908703120CB
:1012400043490870012043490968C8800AE03520F5
:101250003F49087000203F490968C88002E000202B
:101260003B49087001BD43480078002804D0482855
:101270000FD0662862D067E048203E4908704FF6DC
:10128000FF7034490968C880002032490968086045
:101290005DE03948006839490860374800793849C5
:1012A000087037480078152802DB1420344908708C
:1012B00000203449087011E030480068007811308F
:1012C00030490978304A88542C480068401C2B4922
:1012D00008602C480078401C2A490870294800788A
:1012E000274909788842E7D3002025490870244817
:1012F0000078FF2819D00020244908701648C088BB
:101300004FF6FF71884202D10120204908701F4822
:10131000007801280AD11C480F4908601948007854
:101320000D49087100200C49C880A5E766201149C5
:101330000870012007490968C88008E01048007853
:10134000401C0F490870D2E700200A490870704716
:10135000FD000020E000002070000020E4000020DC
:10136000FC000020FB000020480000200038014065
:10137000043801400101002080000020E800002026
:10138000FF000020FE0000205C0000200001002083
:101390006F4800886F4908806E480088B0F5007F6C
:1013A00001DD00BF00BF7047694840886A49088076
:1013B00069480088B0F5007F01DD00BF00BF7047BD
:1013C00066480078002806D05B280DD05D2818D02C
:1013D0007B286AD06FE05B20604908704FF47A7018
:1013E0005F490968C88069E05D205C4908704FF674
:1013F000FF705B490968C880002059490968086086
:101400005CE05848006858490860564800795749D8
:10141000087056480078052802DB042053490870FC
:1014200000205349087010E04F4800680078504988
:101430000978504A88544C480068401C4A49086062
:101440004B480078401C4A49087049480078474991
:1014500009788842E8D3002044490870434800785E
:10146000FF2819D00020444908704448C0884FF62E
:10147000FF71884202D101203F4908703E48007840
:1014800001280AD13B483D490860384800783B496B
:10149000087100203949C8809DE77B202F490870DA
:1014A00001202F490968C88008E030480078401CB6
:1014B0002E490870D2E7002028490870704780B58F
:1014C0002F480078002801D0A6283CD1FFF760FF04
:1014D000FFF76AFF00202B4908702248C0884FF6AA
:1014E000FF71884202D10120264908702548007802
:1014F00001281CD11748008880B2000A22490870D0
:1015000014480088204948701348008880B2000AB7
:101510001D498870104800881B49C8701A48114935
:10152000086004200F49087100200E49C88001217D
:101530001648FFF7FFFCA620114908700A20084949
:101540000968C88002E000200D49087001BD000054
:1015500014000020EC000020EE000020F30000202A
:10156000E0000020C0000020D4000020F100002096
:10157000F0000020D0000020F200002070000020C9
:10158000F5000020F4000020D800002000240140D5
:101590007047FEE7FEE7FEE7FEE7704770477047DB
:1015A00041480078401C40490870704780B50121CF
:1015B0003E48FFF79CFB002810D04FF400513C48F8
:1015C000FFF7A2F9D0F10102D2B24FF4005138482E
:1015D000FFF7A5F901213548FFF7A0FB01BD80B554
:1015E00001215FF08040FFF782FB002804D0012139
:1015F0005FF08040FFF792FB01BD80B540F22661AD
:101600002C48FFF753FA002804D040F226612948FD
:10161000FFF77EFA40F225512648FFF747FA0028E7
:1016200040D02448FFF731FA23490978234A8854E7
:10163000214800782149405CAA2822D11E48007820
:10164000401C1D49087000201D4908701D48C088B5
:101650004FF6FF71884202D10120194908701848DD
:101660000078012809D11548164908601248007809
:101670001449087100201349C88000200E490870E1
:1016800004E00D480078401C0B4908700A480078B7
:10169000152802DB00200849087040F22551054852
:1016A000FFF736FA01BD0000F8000020002C0140D1
:1016B0000010014000380140F900002034000020F3
:1016C000FA00002080000020394800780A281ADB40
:1016D000374800780A3836490870364801680020D3
:1016E0000CE0CA884FF6FF739A4205D0CA88002AD8
:1016F00002D0CA88521ECA80C968401C2E4A12787D
:10170000C0B29042EDD370472B4B1B78002B0DD10C
:10171000284B186081602949086028490968274BCF
:101720001B68D96025490968CA8016E0224B1B78DE
:10173000FF2B0DD0816021490968C968C1601F492C
:101740000968C8601D4908601C490968CA8004E02E
:1017500019490978491E184A117017490978491C16
:10176000154A11700021016000210171704780B598
:1017700010480068114908600CE04FF6FF700F49EF
:101780000968C8800D48006880688047094800687B
:101790000A490860FFF798FF08480068C0880028D9
:1017A000EBD006480068C06804490860F2E7000012
:1017B000F8000020DC000020F7000020E0000020FE
:1017C00080B5002222492348FFF79EFF01222249CB
:1017D0002248FFF799FF022221492248FFF794FF90
:1017E000032221492148FFF78FFF04222049214885
:1017F000FFF78AFF05220FF225011F48FFF784FF3C
:1018000001BD80B572B6FEF799FC00F03DF8FFF718
:10181000D7FF62B6FFF7ABFF01BD000017480078A5
:10182000002801D058280ED11548006890F40040D7
:10183000134908605820114908704FF4FA70114993
:101840000968C88002E000200C4908707047000059
:101850008D180008900000208511000870000020FD
:101860006712000880000020C1130008C00000209B
:10187000BF140008B0000020A0000020F6000020E7
:101880000C080140E00000207047000080B50C48C3
:101890000078002802D0162808D00DE0162008494C
:1018A00008700A2007490968C88008E0FFF7ECFBC8
:1018B0005420FFF716FCF1E700200149087001BD34
:1018C00002010020E000002010B5074979441831DA
:1018D000064C7C44163404E00A68081D51188847F9
:1018E0000146A142F8D110BD080000002800000008
:1018F00047F0FFFFF000000014000020000000008F
:101900003FECFFFF140000000C010000000000206D
:101910000000000000F00BF8002801D0FFF7D4FF12
:101920000020C046C046FFF76CFF00F002F801201F
:10193000704700F001B800000746384600F002F892
:10194000FBE7000080B5C046C046024A11001820DF
:10195000ABBEFBE726000200014880470148004774
:101960006D05000869190008C046C046C046C0465B
:10197000FFF7D0FFFFF7FEBFFFF7FEBFFFF7FEBF89
:10198000FFF7FEBFFFF7FEBFFFF7FEBFFFF7FEBF8B
:10199000FFF7FEBFFFF7FEBFFFF7FEBFFFF7FEBF7B
:1019A000FFF7FEBFFFF7FEBFFFF7FEBFFFF7FEBF6B
:1019B000FFF7FEBFFFF7FEBFFFF7FEBFFFF7FEBF5B
:1019C000FFF7FEBFFFF7FEBFFFF7FEBFFFF7FEBF4B
:1019D000FFF7FEBFFFF7FEBFFFF7FEBFFFF7FEBF3B
:1019E000FFF7FEBFFFF7FEBFFFF7FEBFFFF7FEBF2B
:1019F000FFF7FEBFFFF7FEBFFFF7FEBFFFF7FEBF1B
:101A0000FFF7FEBFFFF7FEBFFFF7FEBFFFF7FEBF0A
:101A1000FFF7FEBF000000000102030401020304FF
:081A200006070809020406088C
:04000005080019696D
:00000001FF
